:020000040000FA
:0400000007EF00F016
:0A0008007F8281ED0FF093EF10F0FE
:1006000000765F64617420203D202020202020009F
:10061000765F74687563203D202020202020002014
:1006200072706D202020002D00005250800B5B6EF8
:10063000525052245D6E51AE20EF03F022EF03F0D2
:1006400023EF03F05D805D50D8B429EF03F02BEF6A
:1006500003F040EF03F05D28D8A431EF03F033EF4F
:1006600003F03BEF03F0000E4F6E000E506E000ED5
:10067000516E000E526E518E000E526E48EF03F016
:10068000000E4F6E000E506E000E516E000E526E38
:100690005650800B5C6E5B505C18D8B452EF03F080
:1006A00054EF03F055EF03F05B8C565056245C6E0C
:1006B00055AE5DEF03F05FEF03F060EF03F05C8099
:1006C0005C50D8B466EF03F068EF03F07DEF03F001
:1006D0005C28D8A46EEF03F070EF03F078EF03F01E
:1006E000000E536E000E546E000E556E000E566EC8
:1006F000558E000E566E85EF03F0000E536E000E01
:10070000546E000E556E000E566E5D505C5CD8B097
:100710008CEF03F08EEF03F0B5EF03F05BAC93EFDB
:1007200003F095EF03F097EF03F0800E5B1A5DC0C6
:100730005EF05CC05DF05EC05CF04FC05EF053C028
:100740004FF05EC053F050C05EF054C050F05EC039
:1007500054F051C05EF055C051F05EC055F052C02B
:100760005EF056C052F05EC056F0000E5E6E5D50F8
:100770005CC057F0586A575E000E585A58BECAEF10
:1007800003F0585009E11A0E575CD8A0CAEF03F0E5
:10079000CCEF03F003EF04F04F5050105110521003
:1007A000D8A4D5EF03F0D8EF03F0010ED9EF03F092
:1007B000000E5E6E000E4F6E000E506E000E516EFB
:1007C000000E526E5CC05DF00CEF04F05EA0EBEF2B
:1007D00003F0EDEF03F0F3EF03F0D8905E30010982
:1007E0005E6EF5EF03F0D8905E324FA0FAEF03F0A3
:1007F000FCEF03F0FDEF03F05E8E523452325132C3
:1008000050324F325D2A5C505D5CD8A00AEF04F094
:100810000CEF04F0E6EF03F05BBC11EF04F013EF14
:1008200004F053EF04F05D50D8A419EF04F01BEF6F
:1008300004F025EF04F0000E4F6E000E506E000E17
:10084000516E000E526E74EF05F053504F26545007
:100850005022555051225650522252A032EF04F0ED
:1008600034EF04F0E0EF04F05EA039EF04F03BEF6A
:1008700004F041EF04F0D8905E3001095E6E43EF62
:1008800004F0D8905E324FA048EF04F04AEF04F035
:100890004BEF04F05E8E52345232513250324F32AE
:1008A0005D2AE0EF04F053504F5C545050585550BF
:1008B00051585250800A576E5650800A5758D8B037
:1008C00064EF04F066EF04F091EF04F04F50535CD6
:1008D000576E50505458586E51505558596E52508A
:1008E00056585A6EFF0E57244F6EFF0E5820506E0A
:1008F000FF0E5920516EFF0E5A20526E800E5B1A69
:100900005E6C5E50D8A487EF04F089EF04F099EF95
:1009100004F0010E4F26000E50225122522299EF70
:1009200004F053504F5E5450505A5550515A56503F
:10093000525A4F50501051105210D8A4A2EF04F048
:10094000A4EF04F0D9EF04F05E50D8A4AAEF04F0AD
:10095000ACEF04F0D9EF04F0000E4F6E000E506EB5
:10096000000E516E000E526E74EF05F0D8904F36A7
:100970005036513652365EAEC0EF04F0C2EF04F08E
:10098000C3EF04F04F805EA0C8EF04F0CAEF04F09C
:10099000CEEF04F0D8805E36D0EF04F0D8905E360B
:1009A0005D50D8B4D6EF04F0D8EF04F0D9EF04F0DE
:1009B0005D0651AEDEEF04F0E0EF04F0B6EF04F0B8
:1009C000000E5C6E5EAEE7EF04F0E9EF04F001EFBD
:1009D00005F05EC057F07F0E5716D8B4F2EF04F062
:1009E000F4EF04F0F8EF04F0010E5C6E01EF05F097
:1009F0004FA0FDEF04F0FFEF04F001EF05F0F4EF7E
:100A000004F05C50D8B407EF05F009EF05F034EFBF
:100A100005F0010E4F26000E50225122522252A004
:100A200014EF05F016EF05F034EF05F04FC057F066
:100A300050C058F051C059F052C05AF05A345A328E
:100A400059325832573257C04FF058C050F059C041
:100A500051F05AC052F05D28D8B431EF05F033EFB1
:100A600005F034EF05F05D2A5D28D8B43AEF05F0C3
:100A70003CEF05F044EF05F05D50D8A442EF05F0DF
:100A800044EF05F056EF05F0000E4F6E000E506E6D
:100A9000000E516E000E526E5D50D8A452EF05F05C
:100AA00054EF05F056EF05F0000E5B6E5DA05BEFB6
:100AB00005F05DEF05F060EF05F0518E61EF05F098
:100AC000519ED8905D30526E5BAE69EF05F06BEFD2
:100AD00005F06CEF05F0528E4FC04FF050C050F053
:100AE00051C051F052C052F01200B9EC10F006ECB7
:100AF00011F0DDEC10F0ECEC10F0880E0F6E130E20
:100B0000106E000E116E000E126E4AEC0FF0FEEC2D
:100B100010F0F5EC10F0E10E0001886F7A0E896F8D
:100B2000C40E8A6F3F0E8B6FF00E936E000E726EC6
:100B3000010E716E4DEC10F001C073F002C074F044
:100B4000000E3A6E000E3B6EA50E3C6E430E3D6EDF
:100B5000000E216EC00E226E7F0E236E440E246E98
:100B600073C00FF074C010F0000E10BEFF0E116EB7
:100B7000126E010E77EC0BF00FC01DF010C01EF0CE
:100B800011C01FF012C020F0AAEC09F01DC036F011
:100B90001EC037F01FC038F020C039F095EC07F0C8
:100BA00036C05FF037C060F038C061F039C062F025
:100BB000E9EC0DF05FC079F060C07AF009EC10F05C
:100BC0007750791809E178507A18D8B4EAEF05F02F
:100BD000ECEF05F07DEF07F07750795C6F6E7850A1
:100BE0007A58706E6FC00FF070C010F0000E10BE1B
:100BF000FF0E116E126E010E77EC0BF00FC08CF031
:100C000010C08DF011C08EF012C08FF08CC03AF081
:100C10008DC03BF08EC03CF08FC03DF088C036F0F8
:100C200089C037F08AC038F08BC039F095EC07F0F6
:100C300036C053F037C054F038C055F039C056F0C4
:100C400075C00FF076C010F0000E10BEFF0E116ED2
:100C5000126E010E77EC0BF00FC04FF010C050F089
:100C600011C051F012C052F015EC03F04FC05FF00C
:100C700050C060F051C061F052C062F0E9EC0DF07C
:100C80005FC075F060C076F076BE4EEF06F0040EE1
:100C9000765CD8A04EEF06F050EF06F053EF06F06A
:100CA000030E766E756876BE5AEF06F058EF06F0C2
:100CB0005EEF06F0000E766E000E756E79507A10BB
:100CC000D8A465EF06F067EF06F07DEF07F0000EA1
:100CD000766E000E756E7DEF07F075C069F076C018
:100CE0006AF0DAEC0CF0000E6A6E000E696E51ECE0
:100CF0000CF00BEC11F0060E706E130E6F6EAE0E54
:100D0000E82EFED76F2EFCD7702EFAD7CE50CFCF5D
:100D10006FF0706A6FC070F06F6A6F107D6E705008
:100D20007E6E7DC001F07EC002F0000E046E140ED7
:100D3000036EA6EC10F001C007F002C008F0000E30
:100D40000A6E160E096EE8EC0EF007C077F008C0C8
:100D500078F078BEB5EF06F0785009E1A60E775C22
:100D6000D8A0B5EF06F0B7EF06F0BAEF06F07706B9
:100D7000D8A0780678BEC6EF06F0785009E1E70EF5
:100D8000775CD8A0C6EF06F0C8EF06F0CBEF06F010
:100D90007706D8A07806090E036E010EB2EC0FF0AC
:100DA00079C00FF07AC010F06CEC0EF01F0E056EDB
:100DB000060E066EE1EC0FF0090E036E020EB2ECA9
:100DC0000FF077C00FF078C010F06CEC0EF01F0E33
:100DD000056E060E066EE1EC0FF09AEF05F0000EC0
:100DE0006A6E000E696EDAEC0CF075C069F076C0C0
:100DF0006AF051EC0CF00BEC11F0060E706E130E55
:100E00006F6EAE0EE82EFED76F2EFCD7702EFAD77F
:100E1000CE50CFCF6FF0706A6FC070F06F6A6F10F6
:100E20007D6E70507E6E7DC001F07EC002F0000EBF
:100E3000046E140E036EA6EC10F001C007F002C0A1
:100E400008F0000E0A6E160E096EE8EC0EF007C0F0
:100E500077F008C078F078BE37EF07F0785009E1F6
:100E6000A60E775CD8A037EF07F039EF07F03CEF1C
:100E700007F07706D8A0780678BE48EF07F07850DC
:100E800009E1E70E775CD8A048EF07F04AEF07F0DA
:100E90004DEF07F07706D8A07806090E036E010E15
:100EA000B2EC0FF0270E056E060E066EE1EC0FF0A9
:100EB00079C00FF07AC010F06CEC0EF0200E056EC9
:100EC000060E066EE1EC0FF0090E036E020EB2EC98
:100ED0000FF0270E056E060E066EE1EC0FF077C0E0
:100EE0000FF078C010F06CEC0EF0200E056E060EC0
:100EF000066EE1EC0FF09AEF05F071C06FF072C072
:100F000070F07050000AD8B488EF07F09AEF05F03F
:100F10006F50010AD8B46DEF06F0030AD8B4EFEFB2
:100F200006F09AEF05F007EF00F03950800B426EA3
:100F300039503924486E38AEA0EF07F0A2EF07F021
:100F4000A3EF07F048804850D8B4A9EF07F0ABEF03
:100F500007F0BEEF07F04828D8A4B1EF07F0B3EFD1
:100F600007F0BBEF07F0000E366E000E376E000E76
:100F7000386E000E396E388EC6EF07F0000E366EF2
:100F8000000E376E000E386E000E396E3D50800B2D
:100F9000421A3D503D24476E3CAED1EF07F0D3EFEF
:100FA00007F0D4EF07F047804750D8B4DAEF07F0E6
:100FB000DCEF07F0EFEF07F04728D8A4E2EF07F0E7
:100FC000E4EF07F0ECEF07F0000E3A6E000E3B6E18
:100FD000000E3C6E000E3D6E3C8EF7EF07F0000EEB
:100FE0003A6E000E3B6E000E3C6E000E3D6E47509A
:100FF000D8B4FDEF07F0FFEF07F007EF08F0485017
:10100000D8A405EF08F007EF08F011EF08F0000E84
:10101000366E000E376E000E386E000E396EA9EF78
:1010200009F03C503602F3CF4DF0F4CF4EF04D5066
:10103000436E446A456A466A4E50496E4A6A4B6A34
:101040004C6A3B503702F3CF4DF0F4CF4EF04D5089
:101050004326000E4422452246224E504926000EC9
:101060004A224B224C223A503802F3CF4DF0F4CFB3
:101070004EF04D504326000E4422452246224E504B
:101080004926000E4A224B224C2245C046F044C05D
:1010900045F043C044F0436A3A503702F3CF4DF075
:1010A000F4CF4EF04D5043264E504422000E4522C0
:1010B000000E46223B503602F3CF4DF0F4CF4EF0F7
:1010C0004D5043264E504422000E4522000E46222B
:1010D00045C046F044C045F043C044F0436A3A502E
:1010E0003602F3CF4DF0F4CF4EF04D5043264E5024
:1010F0004422000E4522000E46223C503702F3CF18
:101100004DF0F4CF4EF04D5049264E504A22000E7D
:101110004B22000E4C223B503802F3CF4DF0F4CF5F
:101120004EF04D5049264E504A22000E4B22000EE2
:101130004C223C503802F3CF4DF0F4CF4EF04D50DE
:101140003E6E4E503F6E406A416A40C041F03FC023
:1011500040F03EC03FF03E6A3E5049263F504A2292
:1011600040504B2241504C2243C03EF044C03FF01F
:1011700045C040F046C041F0190EC4EF08F0D890C9
:10118000413240323F323E32E82EBFEF08F03E504F
:1011900049263F504A2240504B2241504C2245C0E4
:1011A00046F044C045F043C044F0436A475048C04D
:1011B0003EF03F6A3E26000E3F22820E3E244D6ED8
:1011C000FF0E3F204E6EFAEF08F0D89049364A36AF
:1011D0004B364C3646AEEFEF08F0F1EF08F0F2EF89
:1011E00008F04980D89043364436453646364D0699
:1011F000D8A04E064BAEFFEF08F001EF09F0E5EF87
:1012000008F0000E476E46AE08EF09F00AEF09F04D
:101210002EEF09F0FF0E43143E6EFF0E44143F6E96
:10122000FF0E4514406E7F0E4614416E3E503F1037
:1012300040104110D8B41FEF09F021EF09F025EF5D
:1012400009F0010E476E2EEF09F049A02AEF09F0D0
:101250002CEF09F02EEF09F021EF09F04750D8B438
:1012600034EF09F036EF09F05AEF09F0010E492684
:10127000000E4A224B224C224CA041EF09F043EFD2
:1012800009F05AEF09F049C03EF04AC03FF04BC0A8
:1012900040F04CC041F04134413240323F323E32A6
:1012A0003EC049F03FC04AF040C04BF041C04CF056
:1012B0004D4A4E2A4EBE65EF09F04E5008E14D28CA
:1012C000D8A065EF09F067EF09F071EF09F0000EA3
:1012D000496E000E4A6E800E4B6E7F0E4C6E9FEF75
:1012E00009F04EBE7EEF09F04E5006E14D04D8B035
:1012F0007CEF09F07EEF09F08AEF09F0000E496EED
:10130000000E4A6E000E4B6E000E4C6E000E426ECA
:101310009FEF09F04DC048F0FF0E4916FF0E4A1628
:101320007F0E4B16000E4C1648A099EF09F09BEF6C
:1013300009F09CEF09F04B8ED89048304C6E42502B
:101340004C1249C036F04AC037F04BC038F04CC0A0
:1013500039F012002050800B2D6E20502024346E66
:101360001FAEB5EF09F0B7EF09F0B8EF09F0348020
:101370003450D8B4BEEF09F0C0EF09F0D5EF09F052
:101380003428D8A4C6EF09F0C8EF09F0D0EF09F06F
:10139000000E1D6E000E1E6E000E1F6E000E206EE3
:1013A0001F8E000E206EDDEF09F0000E1D6E000E88
:1013B0001E6E000E1F6E000E206E2450800B2D1A24
:1013C00024502424356E23AEE8EF09F0EAEF09F04B
:1013D000EBEF09F035803550D8B4F1EF09F0F3EFB9
:1013E00009F008EF0AF03528D8A4F9EF09F0FBEF6F
:1013F00009F003EF0AF0000E216E000E226E000EBF
:10140000236E000E246E238E000E246E10EF0AF061
:10141000000E216E000E226E000E236E000E246E52
:101420002150221023102410D8A419EF0AF01BEF2A
:101430000AF033EF0AF0000E1D6E000E1E6E000E55
:101440001F6E000E206E800E1F127F0E20122D5078
:1014500020121DC01DF01EC01EF01FC01FF020C0B6
:1014600020F076EF0BF03450D8A439EF0AF03BEFC0
:101470000AF045EF0AF0000E1D6E000E1E6E000E03
:101480001F6E000E206E76EF0BF0355034C025F045
:10149000266A255E000E265A7F0E25242E6E000E2B
:1014A00026202F6E1DC029F01EC02AF01FC02BF071
:1014B00020C02CF0000E1D6E000E1E6E000E1F6E62
:1014C000000E206E000E306E000E316E000E326E79
:1014D000000E336E000E356EA6EF0AF03550D8B40C
:1014E00074EF0AF076EF0AF08DEF0AF0D890293603
:1014F0002A362B362C36D8901D361E361F3620360F
:1015000033AE85EF0AF087EF0AF088EF0AF01D800E
:10151000D89030363136323633362150295C22505D
:101520002A5823502B5824502C58D8A09AEF0AF050
:101530009CEF0AF0A5EF0AF0338C2150295E22506F
:101540002A5A23502B5A24502C5A352A190E356406
:10155000ACEF0AF0AEEF0AF06EEF0AF029502A1055
:101560002B102C10D8B4B7EF0AF0B9EF0AF0D1EF76
:101570000AF03080D1EF0AF0D8901D361E361F36A3
:10158000203633AEC6EF0AF0C8EF0AF0C9EF0AF012
:101590001D80D89030363136323633362E06D8A0FC
:1015A0002F061FAED6EF0AF0D8EF0AF0BCEF0AF014
:1015B000000E356E33AEDFEF0AF0E1EF0AF005EF13
:1015C0000BF0FF0E3014256EFF0E3114266EFF0E49
:1015D0003214276E7F0E3314286E255026102710E4
:1015E0002810D8B4F6EF0AF0F8EF0AF0FCEF0AF092
:1015F000010E356E05EF0BF01DA001EF0BF003EFB0
:101600000BF005EF0BF0F8EF0AF03550D8B40BEF04
:101610000BF00DEF0BF031EF0BF0010E1D26000E5D
:101620001E221F22202220A018EF0BF01AEF0BF031
:1016300031EF0BF01DC025F01EC026F01FC027F0B3
:1016400020C028F02834283227322632253225C0FF
:101650001DF026C01EF027C01FF028C020F02E4A23
:101660002F2A2FBE3CEF0BF02F5008E12E28D8A0D8
:101670003CEF0BF03EEF0BF049EF0BF0000E2F6E3E
:101680002E68000E1D6E000E1E6E000E1F6E000EE8
:10169000206E2FBE56EF0BF02F5006E12E04D8B06F
:1016A00054EF0BF056EF0BF064EF0BF0000E2F6EC3
:1016B000000E2E6E000E1D6E000E1E6E000E1F6EB2
:1016C000000E206E000E2D6E2EC034F034A06BEF95
:1016D0000BF06DEF0BF070EF0BF01F8E71EF0BF056
:1016E0001F9ED8903430206E27EF0AF01200176E3C
:1016F0001750D8B47EEF0BF080EF0BF0A2EF0BF099
:1017000012BE87EF0BF085EF0BF0A2EF0BF00FC0CE
:1017100013F010C014F011C015F012C016F0131E13
:10172000141E151E161E132A000E14221522162230
:1017300013C019F014C01AF015C01BF016C01CF02D
:10174000AAEF0BF00FC019F010C01AF011C01BF077
:1017500012C01CF00F50101011101210D8A4B3EFCB
:101760000BF0B5EF0BF0BFEF0BF0000E0F6E000E9D
:10177000106E000E116E000E126E50EF0CF0960EF1
:10178000186EC9EF0BF0182AD8901C321B321A328F
:101790001932000E1914136E000E1A14146E000E76
:1017A0001B14156EFE0E1C14166E1350141015101B
:1017B0001610D8A4DEEF0BF0E0EF0BF0C3EF0BF048
:1017C000EEEF0BF0182A010E1926000E1A221B222A
:1017D0001C22D8901C321B321A321932000E1914F6
:1017E000136E000E1A14146E000E1B14156EFF0EED
:1017F0001C14166E1350141015101610D8A403EFF5
:101800000CF005EF0CF0E2EF0BF00DEF0CF018060A
:10181000D89019361A361B361C361BBE12EF0CF048
:1018200014EF0CF01CEF0CF0020E18601AEF0CF025
:101830001CEF0CF007EF0CF018B021EF0CF023EFC9
:101840000CF024EF0CF01B9ED890183218C013F047
:10185000146A156A166A13C016F0156A146A136AB8
:101860001350191214501A1215501B1216501C1234
:101870001750D8B43EEF0CF040EF0CF048EF0CF0EE
:1018800012BE47EF0CF045EF0CF048EF0CF01C8E49
:1018900019C00FF01AC010F01BC011F01CC012F0DC
:1018A0001200040E6A5CD8B058EF0CF05AEF0CF03E
:1018B000D9EF0CF090C06BF091C06CF092C06DF05D
:1018C00093C06EF0020ED8906B366C366D366E3665
:1018D000E82E63EF0CF06BC005F06CC006F06DC035
:1018E00007F06EC008F0000E016E2D0E026E310E74
:1018F000036E010E046E63EC0DF001C00FF002C028
:1019000010F003C011F004C012F0010E77EC0BF0E0
:101910000FC03AF010C03BF011C03CF012C03DF0D7
:10192000000E216EC00E226E7F0E236E440E246EBA
:1019300069C00FF06AC010F0116A126A000E77ECED
:101940000BF00FC01DF010C01EF011C01FF012C030
:1019500020F0AAEC09F01DC036F01EC037F01FC001
:1019600038F020C039F095EC07F036C05FF037C092
:1019700060F038C061F039C062F0E9EC0DF05FC092
:1019800069F060C06AF0BA9A69B0C9EF0CF0CCEFA8
:101990000CF0BA88CDEF0CF0BA9869C06BF06AC051
:1019A0006CF0D8906C326B32D8906C326B326B50DA
:1019B000BB6E1200040E6A5CD8B0E1EF0CF0E3EFEE
:1019C0000CF062EF0DF090C06BF091C06CF092C023
:1019D0006DF093C06EF0020ED8906B366C366D369B
:1019E0006E36E82EECEF0CF06BC005F06CC006F024
:1019F0006DC007F06EC008F0000E016E2D0E026E75
:101A0000310E036E010E046E63EC0DF001C00FF099
:101A100002C010F003C011F004C012F0010E77EC08
:101A20000BF00FC03AF010C03BF011C03CF012C0F8
:101A30003DF0000E216EC00E226E7F0E236E440E0E
:101A4000246E69C00FF06AC010F0116A126A000EAD
:101A500077EC0BF00FC01DF010C01EF011C01FF08E
:101A600012C020F0AAEC09F01DC036F01EC037F0FD
:101A70001FC038F020C039F095EC07F036C05FF099
:101A800037C060F038C061F039C062F0E9EC0DF0A9
:101A90005FC069F060C06AF0BD9A69B052EF0DF0A6
:101AA00055EF0DF0BD8856EF0DF0BD9869C06BF095
:101AB0006AC06CF0D8906C326B32D8906C326B325A
:101AC0006B50BE6E1200000E0A6E08BE6CEF0DF079
:101AD0006AEF0DF076EF0DF0081E071E061E056C6E
:101AE000000E062207220822010E0A6E04BE7DEFB8
:101AF0000DF07BEF0DF087EF0DF0041E031E021EAC
:101B0000016C000E022203220422010E0A1A000EAA
:101B10000B6E000E0C6E000E0D6E000E0E6E05505C
:101B2000061007100810D8B498EF0DF09AEF0DF0DA
:101B3000D0EF0DF0010E096EA4EF0DF0D890053630
:101B4000063607360836092A08AEA9EF0DF0ABEFC6
:101B50000DF09EEF0DF0D8900B360C360D360E368C
:101B60000550015C065002580750035808500458AD
:101B7000D8A0BDEF0DF0BFEF0DF0C8EF0DF0055090
:101B8000015E0650025A0750035A0850045A0B804F
:101B9000D8900832073206320532092EABEF0DF02D
:101BA0000A50D8B4D6EF0DF0D8EF0DF0E0EF0DF0FD
:101BB0000E1E0D1E0C1E0B6C000E0C220D220E2292
:101BC0000BC001F00CC002F00DC003F00EC004F019
:101BD000120061346234686E6850D8A4F2EF0DF0E0
:101BE000F4EF0DF0FEEF0DF0000E5F6E000E606E74
:101BF000000E616E000E626E6BEF0EF05FC063F060
:101C000060C064F061C065F062C066F0200E0EEF47
:101C10000EF0D8906632653264326332E82E09EFF6
:101C20000EF06350676E618EFF0E5F16FF0E60163A
:101C3000FF0E6116000E6216960E685E68BE25EFF6
:101C40000EF023EF0EF03BEF0EF06850800A970F76
:101C5000D8B02DEF0EF02FEF0EF031EF0EF0F4EFC5
:101C60000DF0D8906232613260325F32683E31EFFF
:101C70000EF053EF0EF01F0E686441EF0EF043EFCD
:101C80000EF04BEF0EF0F4EF0DF0D8905F366036AB
:101C90006136623668066850D8A451EF0EF053EFF3
:101CA0000EF045EF0EF06750D8B459EF0EF05BEF31
:101CB0000EF063EF0EF0621E611E601E5F6C000E80
:101CC0006022612262225FC05FF060C060F061C08C
:101CD00061F062C062F01200270E166E100E156ED3
:101CE0000FC013F010C014F00F501010D8B47BEFD9
:101CF0000EF07DEF0EF0A6EF0EF08DEF0EF015C09A
:101D000007F016C008F0000E0A6E0A0E096EE8EC25
:101D10000EF007C015F008C016F013C007F014C08D
:101D200008F015C009F016C00AF0E8EC0EF008BE85
:101D3000A2EF0EF0085008E10704D8A0A2EF0EF0C1
:101D4000A4EF0EF07FEF0EF0AAEF0EF0000E166E6D
:101D5000010E156E13C007F014C008F015C009F08D
:101D600016C00AF0E8EC0EF007C011F008C012F03F
:101D70001150300F65EC10F015C001F016C002F0E4
:101D800011C003F012C004F0A6EC10F00150135C77
:101D9000136E02501458146E15C007F016C008F0E8
:101DA000000E0A6E0A0E096EE8EC0EF007C015F080
:101DB00008C016F016BEE7EF0EF0165006E1150447
:101DC000D8B0E5EF0EF0E7EF0EF0AAEF0EF012003C
:101DD000000E0C6E0ABEF1EF0EF0EFEF0EF0F7EF13
:101DE0000EF0096C0A1ED8B00A2A010E0C6E08BE4D
:101DF000FEEF0EF0FCEF0EF004EF0FF0076C081E84
:101E0000D8B0082A010E0C1A000E0E6E000E0D6ED0
:101E100009500A10D8B40FEF0FF011EF0FF039EF9F
:101E20000FF0010E0B6E19EF0FF0D89009360A363D
:101E30000B2A0AAE1EEF0FF020EF0FF015EF0FF098
:101E4000D8900D360E360950075C0A500858D8A0B5
:101E50002CEF0FF02EEF0FF033EF0FF00950075E6D
:101E60000A50085A0D80D8900A3209320B2E20EF02
:101E70000FF00C50D8B43FEF0FF041EF0FF045EFEB
:101E80000FF00D6C0E1ED8B00E2A0DC007F00EC05C
:101E900008F01200000E016E2D0E026E310E036E60
:101EA000010E046E0FC013F010C014F011C015F035
:101EB00012C016F0020ED8901336143615361636A8
:101EC000E82E5BEF0FF0020ED8901336143615365D
:101ED0001636E82E64EF0FF013C005F014C006F0BC
:101EE00015C007F016C008F063EC0DF00104CB6ECE
:101EF0000FC090F010C091F011C092F012C093F09A
:101F000012000600F2A087EF0FF089EF0FF0AFEF9D
:101F10000FF081BA8EEF0FF090EF0FF0AFEF0FF0F0
:101F200071047210D8A497EF0FF099EF0FF09FEFA4
:101F30000FF0000E726E020E716EAFEF0FF0020E18
:101F400071187210D8A4A7EF0FF0A9EF0FF0AFEF40
:101F50000FF0000E726E010E716EAFEF0FF0F29087
:101F60007F921100046E0404D8A4B9EF0FF0BBEF08
:101F70000FF0CAEF0FF0100E0360C1EF0FF0C3EFC8
:101F80000FF0CAEF0FF003500F0B80097CEC10F03C
:101F9000E0EF0FF0020E0418D8A4D1EF0FF0D3EF4A
:101FA0000FF0E0EF0FF0100E0360D9EF0FF0DBEF52
:101FB0000FF0E0EF0FF003500F0BC0097CEC10F0B6
:101FC0001200000E0A6E000E096EF7EF0FF00950B6
:101FD0000524076E0A500620086E07C0F6FF08C0E9
:101FE000F7FF0800F55065EC10F0094A0A2A05C011
:101FF00001F006C002F030EC10F00150095C025014
:102000000A58D8A006EF10F008EF10F0E7EF0FF035
:10201000120078BE17EF10F0785007E1330E775CAE
:10202000D8B015EF10F017EF10F01BEF10F0010E05
:10203000816E2FEF10F078BE29EF10F02D0E775C37
:10204000010E7858D8B027EF10F029EF10F02DEFDF
:1020500010F0020E816E2FEF10F0040E816E120050
:1020600001C003F002C004F038EF10F0014A022A68
:1020700001C0F6FF02C0F7FF0800F5500009D8A420
:1020800044EF10F046EF10F036EF10F00350015C13
:10209000016E04500258026E1200C282C2B253EFA7
:1020A00010F055EF10F04EEF10F0C350C4CF03F016
:1020B000046A03C004F0036A03107B6E04507C6E54
:1020C0007BC001F07CC002F01200026E829C828A0A
:1020D00002C083FF828E070E016E7D0EE82EFED7B2
:1020E000012EFCD700F0829E140E016E7A0EE82EAF
:1020F000FED7012EFCD71200026E829C829A02C08B
:1021000083FF828E070E016E7D0EE82EFED7012E14
:10211000FCD700F0829E140E016E7A0EE82EFED7D8
:10212000012EFCD7120000EE80F0140EEE6AE806D5
:10213000FDE100EE71F00E0EEE6AE806FDE17F9023
:102140007F92000EF86E000175EF05F0015003025A
:10215000F3CF05F0F4CF06F001500402F350062649
:1021600002500302F350062605C001F006C002F03B
:102170001200CBEC10F0010E056E060E066EE1ECBF
:102180000FF0C00E7CEC10F0100E056E060E066E01
:10219000E1EC0FF01200000E956E000E946E000E32
:1021A000826E000E836E380E7CEC10F00C0E7CEC10
:1021B00010F0010E7CEC10F012009268C280C29404
:1021C000C296C298C29A000EC46E000EC36EC2823E
:1021D000000EC16EC08E1200BD86BD84BA86BA8460
:1021E000CA80CA92CA8494941200F00E936E8168D9
:1021F000000EF26EF28EF28CF28612009480030EC4
:10220000CD6E000ECE6E000ECF6E120094968296AA
:10221000949882881200000ECE6E000ECF6E1200CF
:020000040020DA
:08000000FFFFFFFFFFFFFFFF00
:020000040030CA
:0E000000FF071F1FFF0385FF0FC00FE00F401B
:00000001FF
